{
  "_format": "hh-sol-artifact-1",
  "contractName": "ResearchNFT",
  "sourceName": "contracts/ResearchNFT.sol",
  "abi": [
    {
      "inputs": [],
      "stateMutability": "nonpayable",
      "type": "constructor"
    },
    {
      "inputs": [
        {
          "internalType": "address",
          "name": "sender",
          "type": "address"
        },
        {
          "internalType": "uint256",
          "name": "tokenId",
          "type": "uint256"
        },
        {
          "internalType": "address",
          "name": "owner",
          "type": "address"
        }
      ],
      "name": "ERC721IncorrectOwner",
      "type": "error"
    },
    {
      "inputs": [
        {
          "internalType": "address",
          "name": "operator",
          "type": "address"
        },
        {
          "internalType": "uint256",
          "name": "tokenId",
          "type": "uint256"
        }
      ],
      "name": "ERC721InsufficientApproval",
      "type": "error"
    },
    {
      "inputs": [
        {
          "internalType": "address",
          "name": "approver",
          "type": "address"
        }
      ],
      "name": "ERC721InvalidApprover",
      "type": "error"
    },
    {
      "inputs": [
        {
          "internalType": "address",
          "name": "operator",
          "type": "address"
        }
      ],
      "name": "ERC721InvalidOperator",
      "type": "error"
    },
    {
      "inputs": [
        {
          "internalType": "address",
          "name": "owner",
          "type": "address"
        }
      ],
      "name": "ERC721InvalidOwner",
      "type": "error"
    },
    {
      "inputs": [
        {
          "internalType": "address",
          "name": "receiver",
          "type": "address"
        }
      ],
      "name": "ERC721InvalidReceiver",
      "type": "error"
    },
    {
      "inputs": [
        {
          "internalType": "address",
          "name": "sender",
          "type": "address"
        }
      ],
      "name": "ERC721InvalidSender",
      "type": "error"
    },
    {
      "inputs": [
        {
          "internalType": "uint256",
          "name": "tokenId",
          "type": "uint256"
        }
      ],
      "name": "ERC721NonexistentToken",
      "type": "error"
    },
    {
      "inputs": [
        {
          "internalType": "address",
          "name": "owner",
          "type": "address"
        }
      ],
      "name": "OwnableInvalidOwner",
      "type": "error"
    },
    {
      "inputs": [
        {
          "internalType": "address",
          "name": "account",
          "type": "address"
        }
      ],
      "name": "OwnableUnauthorizedAccount",
      "type": "error"
    },
    {
      "inputs": [],
      "name": "ReentrancyGuardReentrantCall",
      "type": "error"
    },
    {
      "anonymous": false,
      "inputs": [
        {
          "indexed": true,
          "internalType": "address",
          "name": "owner",
          "type": "address"
        },
        {
          "indexed": true,
          "internalType": "address",
          "name": "approved",
          "type": "address"
        },
        {
          "indexed": true,
          "internalType": "uint256",
          "name": "tokenId",
          "type": "uint256"
        }
      ],
      "name": "Approval",
      "type": "event"
    },
    {
      "anonymous": false,
      "inputs": [
        {
          "indexed": true,
          "internalType": "address",
          "name": "owner",
          "type": "address"
        },
        {
          "indexed": true,
          "internalType": "address",
          "name": "operator",
          "type": "address"
        },
        {
          "indexed": false,
          "internalType": "bool",
          "name": "approved",
          "type": "bool"
        }
      ],
      "name": "ApprovalForAll",
      "type": "event"
    },
    {
      "anonymous": false,
      "inputs": [
        {
          "indexed": false,
          "internalType": "uint256",
          "name": "_fromTokenId",
          "type": "uint256"
        },
        {
          "indexed": false,
          "internalType": "uint256",
          "name": "_toTokenId",
          "type": "uint256"
        }
      ],
      "name": "BatchMetadataUpdate",
      "type": "event"
    },
    {
      "anonymous": false,
      "inputs": [
        {
          "indexed": true,
          "internalType": "uint256",
          "name": "fromTokenId",
          "type": "uint256"
        },
        {
          "indexed": true,
          "internalType": "uint256",
          "name": "toTokenId",
          "type": "uint256"
        },
        {
          "indexed": true,
          "internalType": "address",
          "name": "citer",
          "type": "address"
        }
      ],
      "name": "CitationAdded",
      "type": "event"
    },
    {
      "anonymous": false,
      "inputs": [
        {
          "indexed": true,
          "internalType": "uint256",
          "name": "tokenId",
          "type": "uint256"
        },
        {
          "indexed": false,
          "internalType": "enum ResearchNFT.ImpactLevel",
          "name": "oldLevel",
          "type": "uint8"
        },
        {
          "indexed": false,
          "internalType": "enum ResearchNFT.ImpactLevel",
          "name": "newLevel",
          "type": "uint8"
        }
      ],
      "name": "ImpactLevelUpdated",
      "type": "event"
    },
    {
      "anonymous": false,
      "inputs": [
        {
          "indexed": false,
          "internalType": "uint256",
          "name": "_tokenId",
          "type": "uint256"
        }
      ],
      "name": "MetadataUpdate",
      "type": "event"
    },
    {
      "anonymous": false,
      "inputs": [
        {
          "indexed": true,
          "internalType": "address",
          "name": "previousOwner",
          "type": "address"
        },
        {
          "indexed": true,
          "internalType": "address",
          "name": "newOwner",
          "type": "address"
        }
      ],
      "name": "OwnershipTransferred",
      "type": "event"
    },
    {
      "anonymous": false,
      "inputs": [
        {
          "indexed": true,
          "internalType": "uint256",
          "name": "tokenId",
          "type": "uint256"
        },
        {
          "indexed": false,
          "internalType": "address[]",
          "name": "authors",
          "type": "address[]"
        },
        {
          "indexed": false,
          "internalType": "string",
          "name": "title",
          "type": "string"
        },
        {
          "indexed": false,
          "internalType": "enum ResearchNFT.PublicationType",
          "name": "pubType",
          "type": "uint8"
        },
        {
          "indexed": false,
          "internalType": "uint256",
          "name": "timestamp",
          "type": "uint256"
        }
      ],
      "name": "ResearchMinted",
      "type": "event"
    },
    {
      "anonymous": false,
      "inputs": [
        {
          "indexed": true,
          "internalType": "uint256",
          "name": "tokenId",
          "type": "uint256"
        },
        {
          "indexed": false,
          "internalType": "address[]",
          "name": "authors",
          "type": "address[]"
        },
        {
          "indexed": false,
          "internalType": "uint256[]",
          "name": "shares",
          "type": "uint256[]"
        },
        {
          "indexed": false,
          "internalType": "uint256",
          "name": "totalAmount",
          "type": "uint256"
        }
      ],
      "name": "RevenueDistributed",
      "type": "event"
    },
    {
      "anonymous": false,
      "inputs": [
        {
          "indexed": true,
          "internalType": "uint256",
          "name": "tokenId",
          "type": "uint256"
        },
        {
          "indexed": true,
          "internalType": "address",
          "name": "reviewer",
          "type": "address"
        },
        {
          "indexed": false,
          "internalType": "uint8",
          "name": "score",
          "type": "uint8"
        },
        {
          "indexed": false,
          "internalType": "bool",
          "name": "isAnonymous",
          "type": "bool"
        }
      ],
      "name": "ReviewSubmitted",
      "type": "event"
    },
    {
      "anonymous": false,
      "inputs": [
        {
          "indexed": true,
          "internalType": "address",
          "name": "from",
          "type": "address"
        },
        {
          "indexed": true,
          "internalType": "address",
          "name": "to",
          "type": "address"
        },
        {
          "indexed": true,
          "internalType": "uint256",
          "name": "tokenId",
          "type": "uint256"
        }
      ],
      "name": "Transfer",
      "type": "event"
    },
    {
      "inputs": [],
      "name": "MAX_AUTHORS",
      "outputs": [
        {
          "internalType": "uint256",
          "name": "",
          "type": "uint256"
        }
      ],
      "stateMutability": "view",
      "type": "function"
    },
    {
      "inputs": [
        {
          "internalType": "address",
          "name": "_contract",
          "type": "address"
        }
      ],
      "name": "addAuthorizedContract",
      "outputs": [],
      "stateMutability": "nonpayable",
      "type": "function"
    },
    {
      "inputs": [
        {
          "internalType": "address",
          "name": "_reviewer",
          "type": "address"
        }
      ],
      "name": "addAuthorizedReviewer",
      "outputs": [],
      "stateMutability": "nonpayable",
      "type": "function"
    },
    {
      "inputs": [
        {
          "internalType": "uint256",
          "name": "_fromTokenId",
          "type": "uint256"
        },
        {
          "internalType": "uint256",
          "name": "_toTokenId",
          "type": "uint256"
        },
        {
          "internalType": "string",
          "name": "_context",
          "type": "string"
        }
      ],
      "name": "addCitation",
      "outputs": [],
      "stateMutability": "nonpayable",
      "type": "function"
    },
    {
      "inputs": [
        {
          "internalType": "address",
          "name": "to",
          "type": "address"
        },
        {
          "internalType": "uint256",
          "name": "tokenId",
          "type": "uint256"
        }
      ],
      "name": "approve",
      "outputs": [],
      "stateMutability": "nonpayable",
      "type": "function"
    },
    {
      "inputs": [
        {
          "internalType": "address",
          "name": "",
          "type": "address"
        },
        {
          "internalType": "uint256",
          "name": "",
          "type": "uint256"
        }
      ],
      "name": "authorWorks",
      "outputs": [
        {
          "internalType": "uint256",
          "name": "",
          "type": "uint256"
        }
      ],
      "stateMutability": "view",
      "type": "function"
    },
    {
      "inputs": [
        {
          "internalType": "address",
          "name": "",
          "type": "address"
        }
      ],
      "name": "authorizedContracts",
      "outputs": [
        {
          "internalType": "bool",
          "name": "",
          "type": "bool"
        }
      ],
      "stateMutability": "view",
      "type": "function"
    },
    {
      "inputs": [
        {
          "internalType": "address",
          "name": "",
          "type": "address"
        }
      ],
      "name": "authorizedReviewers",
      "outputs": [
        {
          "internalType": "bool",
          "name": "",
          "type": "bool"
        }
      ],
      "stateMutability": "view",
      "type": "function"
    },
    {
      "inputs": [
        {
          "internalType": "address",
          "name": "owner",
          "type": "address"
        }
      ],
      "name": "balanceOf",
      "outputs": [
        {
          "internalType": "uint256",
          "name": "",
          "type": "uint256"
        }
      ],
      "stateMutability": "view",
      "type": "function"
    },
    {
      "inputs": [
        {
          "internalType": "uint256",
          "name": "_tokenId",
          "type": "uint256"
        }
      ],
      "name": "calculateImpactScore",
      "outputs": [
        {
          "internalType": "uint256",
          "name": "",
          "type": "uint256"
        }
      ],
      "stateMutability": "view",
      "type": "function"
    },
    {
      "inputs": [
        {
          "internalType": "uint256",
          "name": "",
          "type": "uint256"
        },
        {
          "internalType": "uint256",
          "name": "",
          "type": "uint256"
        }
      ],
      "name": "citations",
      "outputs": [
        {
          "internalType": "uint256",
          "name": "fromTokenId",
          "type": "uint256"
        },
        {
          "internalType": "uint256",
          "name": "toTokenId",
          "type": "uint256"
        },
        {
          "internalType": "address",
          "name": "citer",
          "type": "address"
        },
        {
          "internalType": "uint256",
          "name": "timestamp",
          "type": "uint256"
        },
        {
          "internalType": "string",
          "name": "context",
          "type": "string"
        }
      ],
      "stateMutability": "view",
      "type": "function"
    },
    {
      "inputs": [
        {
          "internalType": "string",
          "name": "",
          "type": "string"
        }
      ],
      "name": "contentExists",
      "outputs": [
        {
          "internalType": "bool",
          "name": "",
          "type": "bool"
        }
      ],
      "stateMutability": "view",
      "type": "function"
    },
    {
      "inputs": [
        {
          "internalType": "uint256",
          "name": "tokenId",
          "type": "uint256"
        }
      ],
      "name": "getApproved",
      "outputs": [
        {
          "internalType": "address",
          "name": "",
          "type": "address"
        }
      ],
      "stateMutability": "view",
      "type": "function"
    },
    {
      "inputs": [
        {
          "internalType": "address",
          "name": "_author",
          "type": "address"
        }
      ],
      "name": "getAuthorWorks",
      "outputs": [
        {
          "internalType": "uint256[]",
          "name": "",
          "type": "uint256[]"
        }
      ],
      "stateMutability": "view",
      "type": "function"
    },
    {
      "inputs": [
        {
          "internalType": "uint256",
          "name": "_tokenId",
          "type": "uint256"
        }
      ],
      "name": "getCitations",
      "outputs": [
        {
          "components": [
            {
              "internalType": "uint256",
              "name": "fromTokenId",
              "type": "uint256"
            },
            {
              "internalType": "uint256",
              "name": "toTokenId",
              "type": "uint256"
            },
            {
              "internalType": "address",
              "name": "citer",
              "type": "address"
            },
            {
              "internalType": "uint256",
              "name": "timestamp",
              "type": "uint256"
            },
            {
              "internalType": "string",
              "name": "context",
              "type": "string"
            }
          ],
          "internalType": "struct ResearchNFT.Citation[]",
          "name": "",
          "type": "tuple[]"
        }
      ],
      "stateMutability": "view",
      "type": "function"
    },
    {
      "inputs": [
        {
          "internalType": "uint256",
          "name": "_tokenId",
          "type": "uint256"
        }
      ],
      "name": "getPeerReviews",
      "outputs": [
        {
          "components": [
            {
              "internalType": "address",
              "name": "reviewer",
              "type": "address"
            },
            {
              "internalType": "uint256",
              "name": "timestamp",
              "type": "uint256"
            },
            {
              "internalType": "uint8",
              "name": "score",
              "type": "uint8"
            },
            {
              "internalType": "string",
              "name": "reviewHash",
              "type": "string"
            },
            {
              "internalType": "bool",
              "name": "isAnonymous",
              "type": "bool"
            },
            {
              "internalType": "bytes32",
              "name": "zkpProof",
              "type": "bytes32"
            }
          ],
          "internalType": "struct ResearchNFT.PeerReview[]",
          "name": "",
          "type": "tuple[]"
        }
      ],
      "stateMutability": "view",
      "type": "function"
    },
    {
      "inputs": [],
      "name": "getPlatformStats",
      "outputs": [
        {
          "internalType": "uint256",
          "name": "totalResearches",
          "type": "uint256"
        },
        {
          "internalType": "uint256",
          "name": "totalCitations",
          "type": "uint256"
        },
        {
          "internalType": "uint256",
          "name": "totalDownloads",
          "type": "uint256"
        },
        {
          "internalType": "uint256",
          "name": "totalRevenue",
          "type": "uint256"
        },
        {
          "internalType": "uint256",
          "name": "pendingReviews",
          "type": "uint256"
        },
        {
          "internalType": "uint256",
          "name": "approvedResearches",
          "type": "uint256"
        }
      ],
      "stateMutability": "view",
      "type": "function"
    },
    {
      "inputs": [
        {
          "internalType": "enum ResearchNFT.PublicationType",
          "name": "_pubType",
          "type": "uint8"
        }
      ],
      "name": "getResearchesByType",
      "outputs": [
        {
          "internalType": "uint256[]",
          "name": "",
          "type": "uint256[]"
        }
      ],
      "stateMutability": "view",
      "type": "function"
    },
    {
      "inputs": [
        {
          "internalType": "uint256",
          "name": "_tokenId",
          "type": "uint256"
        },
        {
          "internalType": "address",
          "name": "_user",
          "type": "address"
        }
      ],
      "name": "hasAccessToResearch",
      "outputs": [
        {
          "internalType": "bool",
          "name": "",
          "type": "bool"
        }
      ],
      "stateMutability": "view",
      "type": "function"
    },
    {
      "inputs": [
        {
          "internalType": "enum ResearchNFT.ImpactLevel",
          "name": "",
          "type": "uint8"
        }
      ],
      "name": "impactMultipliers",
      "outputs": [
        {
          "internalType": "uint256",
          "name": "",
          "type": "uint256"
        }
      ],
      "stateMutability": "view",
      "type": "function"
    },
    {
      "inputs": [
        {
          "internalType": "address",
          "name": "owner",
          "type": "address"
        },
        {
          "internalType": "address",
          "name": "operator",
          "type": "address"
        }
      ],
      "name": "isApprovedForAll",
      "outputs": [
        {
          "internalType": "bool",
          "name": "",
          "type": "bool"
        }
      ],
      "stateMutability": "view",
      "type": "function"
    },
    {
      "inputs": [],
      "name": "minReviewers",
      "outputs": [
        {
          "internalType": "uint256",
          "name": "",
          "type": "uint256"
        }
      ],
      "stateMutability": "view",
      "type": "function"
    },
    {
      "inputs": [
        {
          "internalType": "address[]",
          "name": "_authors",
          "type": "address[]"
        },
        {
          "internalType": "uint256[]",
          "name": "_authorShares",
          "type": "uint256[]"
        },
        {
          "internalType": "string",
          "name": "_title",
          "type": "string"
        },
        {
          "internalType": "string",
          "name": "_abstractText",
          "type": "string"
        },
        {
          "internalType": "string[]",
          "name": "_keywords",
          "type": "string[]"
        },
        {
          "internalType": "string[]",
          "name": "_researchFields",
          "type": "string[]"
        },
        {
          "internalType": "enum ResearchNFT.PublicationType",
          "name": "_pubType",
          "type": "uint8"
        },
        {
          "internalType": "string",
          "name": "_contentHash",
          "type": "string"
        },
        {
          "internalType": "string",
          "name": "_metadataHash",
          "type": "string"
        },
        {
          "internalType": "bool",
          "name": "_isOpenAccess",
          "type": "bool"
        },
        {
          "internalType": "uint256",
          "name": "_accessPrice",
          "type": "uint256"
        },
        {
          "internalType": "string",
          "name": "_tokenURI",
          "type": "string"
        }
      ],
      "name": "mintResearch",
      "outputs": [
        {
          "internalType": "uint256",
          "name": "",
          "type": "uint256"
        }
      ],
      "stateMutability": "nonpayable",
      "type": "function"
    },
    {
      "inputs": [],
      "name": "name",
      "outputs": [
        {
          "internalType": "string",
          "name": "",
          "type": "string"
        }
      ],
      "stateMutability": "view",
      "type": "function"
    },
    {
      "inputs": [],
      "name": "owner",
      "outputs": [
        {
          "internalType": "address",
          "name": "",
          "type": "address"
        }
      ],
      "stateMutability": "view",
      "type": "function"
    },
    {
      "inputs": [
        {
          "internalType": "uint256",
          "name": "tokenId",
          "type": "uint256"
        }
      ],
      "name": "ownerOf",
      "outputs": [
        {
          "internalType": "address",
          "name": "",
          "type": "address"
        }
      ],
      "stateMutability": "view",
      "type": "function"
    },
    {
      "inputs": [
        {
          "internalType": "uint256",
          "name": "",
          "type": "uint256"
        },
        {
          "internalType": "uint256",
          "name": "",
          "type": "uint256"
        }
      ],
      "name": "peerReviews",
      "outputs": [
        {
          "internalType": "address",
          "name": "reviewer",
          "type": "address"
        },
        {
          "internalType": "uint256",
          "name": "timestamp",
          "type": "uint256"
        },
        {
          "internalType": "uint8",
          "name": "score",
          "type": "uint8"
        },
        {
          "internalType": "string",
          "name": "reviewHash",
          "type": "string"
        },
        {
          "internalType": "bool",
          "name": "isAnonymous",
          "type": "bool"
        },
        {
          "internalType": "bytes32",
          "name": "zkpProof",
          "type": "bytes32"
        }
      ],
      "stateMutability": "view",
      "type": "function"
    },
    {
      "inputs": [],
      "name": "platformFeeRate",
      "outputs": [
        {
          "internalType": "uint256",
          "name": "",
          "type": "uint256"
        }
      ],
      "stateMutability": "view",
      "type": "function"
    },
    {
      "inputs": [
        {
          "internalType": "uint256",
          "name": "_tokenId",
          "type": "uint256"
        }
      ],
      "name": "purchaseAccess",
      "outputs": [],
      "stateMutability": "payable",
      "type": "function"
    },
    {
      "inputs": [
        {
          "internalType": "address",
          "name": "",
          "type": "address"
        }
      ],
      "name": "qualityVerifiers",
      "outputs": [
        {
          "internalType": "bool",
          "name": "",
          "type": "bool"
        }
      ],
      "stateMutability": "view",
      "type": "function"
    },
    {
      "inputs": [
        {
          "internalType": "address",
          "name": "_contract",
          "type": "address"
        }
      ],
      "name": "removeAuthorizedContract",
      "outputs": [],
      "stateMutability": "nonpayable",
      "type": "function"
    },
    {
      "inputs": [
        {
          "internalType": "address",
          "name": "_reviewer",
          "type": "address"
        }
      ],
      "name": "removeAuthorizedReviewer",
      "outputs": [],
      "stateMutability": "nonpayable",
      "type": "function"
    },
    {
      "inputs": [],
      "name": "renounceOwnership",
      "outputs": [],
      "stateMutability": "nonpayable",
      "type": "function"
    },
    {
      "inputs": [
        {
          "internalType": "uint256",
          "name": "",
          "type": "uint256"
        }
      ],
      "name": "researches",
      "outputs": [
        {
          "internalType": "uint256",
          "name": "tokenId",
          "type": "uint256"
        },
        {
          "internalType": "string",
          "name": "title",
          "type": "string"
        },
        {
          "internalType": "string",
          "name": "abstractText",
          "type": "string"
        },
        {
          "internalType": "enum ResearchNFT.PublicationType",
          "name": "pubType",
          "type": "uint8"
        },
        {
          "internalType": "string",
          "name": "contentHash",
          "type": "string"
        },
        {
          "internalType": "string",
          "name": "metadataHash",
          "type": "string"
        },
        {
          "internalType": "uint256",
          "name": "timestamp",
          "type": "uint256"
        },
        {
          "internalType": "enum ResearchNFT.ReviewStatus",
          "name": "reviewStatus",
          "type": "uint8"
        },
        {
          "internalType": "enum ResearchNFT.ImpactLevel",
          "name": "impactLevel",
          "type": "uint8"
        },
        {
          "internalType": "uint256",
          "name": "citationCount",
          "type": "uint256"
        },
        {
          "internalType": "uint256",
          "name": "downloadCount",
          "type": "uint256"
        },
        {
          "internalType": "uint256",
          "name": "revenueGenerated",
          "type": "uint256"
        },
        {
          "internalType": "bool",
          "name": "isOpenAccess",
          "type": "bool"
        },
        {
          "internalType": "uint256",
          "name": "accessPrice",
          "type": "uint256"
        }
      ],
      "stateMutability": "view",
      "type": "function"
    },
    {
      "inputs": [],
      "name": "reviewerReward",
      "outputs": [
        {
          "internalType": "uint256",
          "name": "",
          "type": "uint256"
        }
      ],
      "stateMutability": "view",
      "type": "function"
    },
    {
      "inputs": [
        {
          "internalType": "address",
          "name": "from",
          "type": "address"
        },
        {
          "internalType": "address",
          "name": "to",
          "type": "address"
        },
        {
          "internalType": "uint256",
          "name": "tokenId",
          "type": "uint256"
        }
      ],
      "name": "safeTransferFrom",
      "outputs": [],
      "stateMutability": "nonpayable",
      "type": "function"
    },
    {
      "inputs": [
        {
          "internalType": "address",
          "name": "from",
          "type": "address"
        },
        {
          "internalType": "address",
          "name": "to",
          "type": "address"
        },
        {
          "internalType": "uint256",
          "name": "tokenId",
          "type": "uint256"
        },
        {
          "internalType": "bytes",
          "name": "data",
          "type": "bytes"
        }
      ],
      "name": "safeTransferFrom",
      "outputs": [],
      "stateMutability": "nonpayable",
      "type": "function"
    },
    {
      "inputs": [
        {
          "internalType": "address",
          "name": "operator",
          "type": "address"
        },
        {
          "internalType": "bool",
          "name": "approved",
          "type": "bool"
        }
      ],
      "name": "setApprovalForAll",
      "outputs": [],
      "stateMutability": "nonpayable",
      "type": "function"
    },
    {
      "inputs": [
        {
          "internalType": "uint256",
          "name": "_minReviewers",
          "type": "uint256"
        }
      ],
      "name": "setMinReviewers",
      "outputs": [],
      "stateMutability": "nonpayable",
      "type": "function"
    },
    {
      "inputs": [
        {
          "internalType": "uint256",
          "name": "_feeRate",
          "type": "uint256"
        }
      ],
      "name": "setPlatformFeeRate",
      "outputs": [],
      "stateMutability": "nonpayable",
      "type": "function"
    },
    {
      "inputs": [
        {
          "internalType": "uint256",
          "name": "_reward",
          "type": "uint256"
        }
      ],
      "name": "setReviewerReward",
      "outputs": [],
      "stateMutability": "nonpayable",
      "type": "function"
    },
    {
      "inputs": [
        {
          "internalType": "uint256",
          "name": "_tokenId",
          "type": "uint256"
        },
        {
          "internalType": "uint8",
          "name": "_score",
          "type": "uint8"
        },
        {
          "internalType": "string",
          "name": "_reviewHash",
          "type": "string"
        },
        {
          "internalType": "bool",
          "name": "_isAnonymous",
          "type": "bool"
        },
        {
          "internalType": "bytes32",
          "name": "_zkpProof",
          "type": "bytes32"
        }
      ],
      "name": "submitPeerReview",
      "outputs": [],
      "stateMutability": "nonpayable",
      "type": "function"
    },
    {
      "inputs": [
        {
          "internalType": "bytes4",
          "name": "interfaceId",
          "type": "bytes4"
        }
      ],
      "name": "supportsInterface",
      "outputs": [
        {
          "internalType": "bool",
          "name": "",
          "type": "bool"
        }
      ],
      "stateMutability": "view",
      "type": "function"
    },
    {
      "inputs": [],
      "name": "symbol",
      "outputs": [
        {
          "internalType": "string",
          "name": "",
          "type": "string"
        }
      ],
      "stateMutability": "view",
      "type": "function"
    },
    {
      "inputs": [
        {
          "internalType": "uint256",
          "name": "tokenId",
          "type": "uint256"
        }
      ],
      "name": "tokenURI",
      "outputs": [
        {
          "internalType": "string",
          "name": "",
          "type": "string"
        }
      ],
      "stateMutability": "view",
      "type": "function"
    },
    {
      "inputs": [
        {
          "internalType": "address",
          "name": "from",
          "type": "address"
        },
        {
          "internalType": "address",
          "name": "to",
          "type": "address"
        },
        {
          "internalType": "uint256",
          "name": "tokenId",
          "type": "uint256"
        }
      ],
      "name": "transferFrom",
      "outputs": [],
      "stateMutability": "nonpayable",
      "type": "function"
    },
    {
      "inputs": [
        {
          "internalType": "address",
          "name": "newOwner",
          "type": "address"
        }
      ],
      "name": "transferOwnership",
      "outputs": [],
      "stateMutability": "nonpayable",
      "type": "function"
    },
    {
      "inputs": [
        {
          "internalType": "enum ResearchNFT.PublicationType",
          "name": "",
          "type": "uint8"
        }
      ],
      "name": "typeWeights",
      "outputs": [
        {
          "internalType": "uint256",
          "name": "",
          "type": "uint256"
        }
      ],
      "stateMutability": "view",
      "type": "function"
    },
    {
      "inputs": [],
      "name": "withdrawPlatformFees",
      "outputs": [],
      "stateMutability": "nonpayable",
      "type": "function"
    },
    {
      "stateMutability": "payable",
      "type": "receive"
    }
  ],
  "bytecode": "0x60803462000429576040906001600160401b0390808301828111828210176200041357835260128152602071111954d8da4814995cd9585c98da0813919560721b818301528351928484018481108282111762000413578552600490818552632229a92760e11b838601528351818111620003fe576000958654916001968784811c94168015620003f3575b87851014620003e0578190601f948581116200038d575b50879085831160011462000329578a926200031d575b5050600019600383901b1c191690871b1787555b80519283116200030a5785548681811c91168015620002ff575b86821014620002ec579081838594931162000297575b50859183116001146200023357879262000227575b5050600019600383901b1c191690841b1783555b331562000210579160166103e8949286946007543360018060a01b0319821617600755339060018060a01b03167f8be0079c531659141344cd1fd0a4f28419497f9722a3daafe3b4186f6b6457e08780a38360085560fa601255662386f26fc100006013556002601455848052601582526064868620558385526078868620556002855260508686205560038552605a8686205584526055858520556005845260468585205560068452603c8585205560078452604b8585205583805252606483832055815260c88282205560028152610190828220556003815220555161406590816200042f8239f35b8451631e4fbdf760e01b8152908101849052602490fd5b01519050388062000111565b8688528588208794509190601f198416895b8882821062000280575050841162000266575b505050811b01835562000125565b015160001960f88460031b161c1916905538808062000258565b8385015186558a9790950194938401930162000245565b909192508688528588208380860160051c820192888710620002e2575b9186958a929594930160051c01915b828110620002d3575050620000fc565b8a8155869550899101620002c3565b92508192620002b4565b634e487b7160e01b885260228552602488fd5b90607f1690620000e6565b634e487b7160e01b875260418452602487fd5b015190503880620000b8565b8a8052888b208a94509190601f1984168c5b8b8282106200037657505084116200035c575b505050811b018755620000cc565b015160001960f88460031b161c191690553880806200034e565b8385015186558d979095019493840193016200033b565b909150898052878a208580850160051c8201928a8610620003d6575b918b91869594930160051c01915b828110620003c7575050620000a2565b8c81558594508b9101620003b7565b92508192620003a9565b634e487b7160e01b895260228652602489fd5b93607f16936200008b565b604183634e487b7160e01b6000525260246000fd5b634e487b7160e01b600052604160045260246000fd5b600080fdfe608080604052600436101561001d575b50361561001b57600080fd5b005b60003560e01c90816301ffc9a7146136045750806306fdde0314613561578063081812fc146135235780630835c49d1461342c578063095ea7b3146133455780630c09224b14612f8d578063120cd25814612f4b578063136d888314612e325780631e4e37f514612e0a57806323b872dd14612df357806336df576414612dd75780633b11e14114611b2b57806342842e0e14611afd5780634eecfdc014611adf5780635f7d0704146119865780636352211e1461195657806368d4d6c81461190857806369311ea6146118855780636acf908a1461182d5780636fca6e05146117ee57806370a0823114611795578063715018a614611738578063749c0b501461170857806374f96b62146115b15780637a211063146115505780637b9698201461151f57806384ad9165146114fe5780638bd156d4146113e15780638da5cb5b146113b8578063927fef2e1461135557806395d89b411461127657806398eaa4a7146112315780639d5c1852146112135780639ff4894f146111ce578063a22cb46514611120578063a4fb682314610ad2578063b88d4fde14610a67578063b91d0a2f1461076f578063c87b56dd14610712578063cecd830614610679578063d0700b2a1461063a578063d0b7830b146105b4578063d5b9221b14610575578063e6b165ed14610533578063e985e9c5146104dd578063ea41608a1461035f578063eeca08f014610341578063f2fde38b146102b85763fc054d3014610245573861000f565b346102b35760203660031901126102b357600435610261613a64565b6001811061026e57601455005b60405162461bcd60e51b815260206004820152601d60248201527f4d7573742068617665206174206c6561737420312072657669657765720000006044820152606490fd5b600080fd5b346102b35760203660031901126102b3576102d1613705565b6102d9613a64565b6001600160a01b0390811690811561032857600754826001600160601b0360a01b821617600755167f8be0079c531659141344cd1fd0a4f28419497f9722a3daafe3b4186f6b6457e0600080a3005b604051631e4fbdf760e01b815260006004820152602490fd5b346102b35760003660031901126102b3576020601254604051908152f35b346102b3576020806003193601126102b35760043561038561038082613ec2565b613e76565b600052600b815260406000209081549161039e83613861565b926103ac6040519485613782565b8084528284018092600052836000206000915b83831061046e5750505050604051918083019381845251809452604083019360408160051b85010192916000955b8287106103fa5785850386f35b909192938280600192603f19898203018552875190848060a01b038251168152828201518382015260ff60408301511660408201526104486060808401519060c080918501528301906136ac565b9160808082015115159083015260a08091015191015296019201960195929190926103ed565b6006866001926040999899516104838161374c565b848060a01b038654168152848601548382015260ff8060028801541660408301526104b060038801613932565b606083015260048701541615156080820152600586015460a08201528152019201920191909594956103bf565b346102b35760403660031901126102b3576104f6613705565b6104fe61371b565b9060018060a01b03809116600052600560205260406000209116600052602052602060ff604060002054166040519015158152f35b346102b35760203660031901126102b35761054c613705565b610554613a64565b6001600160a01b03166000908152601160205260409020805460ff19169055005b346102b35760203660031901126102b3576001600160a01b03610596613705565b166000526011602052602060ff604060002054166040519015158152f35b346102b35760003660031901126102b3576105cd613a64565b4780156105fe576007546000918291829182916001600160a01b031682f1156105f257005b6040513d6000823e3d90fd5b60405162461bcd60e51b81526020600482015260146024820152734e6f2066756e647320746f20776974686472617760601b6044820152606490fd5b346102b35760203660031901126102b3576001600160a01b0361065b613705565b16600052600f602052602060ff604060002054166040519015158152f35b346102b357610687366139e5565b90600052600b60205260406000209081548110156102b3576106a891613a48565b5060018060a01b0381541660018201549160ff6002820154166107016106d060038401613932565b600560ff6004860154169401549260405196879687526020870152604086015260c0606086015260c08501906136ac565b911515608084015260a08301520390f35b346102b35760203660031901126102b35760043561072f81613c16565b50600052600660205261076b6107486040600020613932565b600060405161075681613767565b526040519182916020835260208301906136ac565b0390f35b6020806003193601126102b357600435600260085414610a5557600260085561079a61038082613ec2565b80600052600a825260406000209160ff601184015416610a1157601283015434106109d657601383013360005280825260ff6040600020541661099c5733600052815260106040600020936001948560ff19825416179055600f81016108008154613d87565b90550161080e348254613daa565b905581600052600a8152604060002090612710906108398261083260125434613db7565b0434613efa565b91858085019460405180968791868254918281520191600052866000209060005b868983831061097e5750505050509161087a600292610880940389613782565b01613f07565b9161088b8651613f56565b926000835b6108f1575b83897fafcef565ec8059c70b79a725b3b5062187675d853590f9dd7cf662a1b36159a26108d68b8b6108e38c8c604051958695606087526060870190613e39565b91858303908601526136d1565b9060408301520390a2600855005b8751811015610979578261090f6109088385613d96565b5189613db7565b048015801561092a575b505061092490613d87565b83610890565b82955060008083819495938d610948849660018060a01b0392613d96565b5116908390610970575bf1156105f25783610924916109688c9688613d96565b52908b610919565b506108fc610952565b610895565b84546001600160a01b031686528c965090940193928301920161085a565b60405162461bcd60e51b8152600481018390526012602482015271416c7265616479206861732061636365737360701b6044820152606490fd5b6064906040519062461bcd60e51b825260048201526014602482015273125b9cdd59999a58da595b9d081c185e5b595b9d60621b6044820152fd5b6064906040519062461bcd60e51b82526004820152601760248201527f5265736561726368206973206f70656e206163636573730000000000000000006044820152fd5b604051633ee5aeb560e01b8152600490fd5b346102b35760803660031901126102b357610a80613705565b610a8861371b565b90604435606435926001600160401b0384116102b357366023850112156102b357610ac061001b9436906024816004013591016137be565b92610acc838383613a90565b33613c51565b346102b35760a03660031901126102b357602480359060ff821682036102b3576044356001600160401b0381116102b357610b119036906004016137f5565b906064359182151583036102b357610b2d610380600435613ec2565b33600052600f60205260ff60406000205416156110dc57600160ff85161015806110ce575b1561108a5780511561104657600435600052600a602052600b60406000200160ff8154166005811015611031578015908115611026575b5015610fea57600435600052600b60205260406000209160008354905b818110610f8a575060405191610bbb8361374c565b33835242602084015260ff881660408401526060830152851515608083015260843560a0830152600160401b811015610f7557806001610bfe9201855584613a48565b919091610f605760018060a01b038151166001600160601b0360a01b835416178255602081015160018301556002820160ff60408301511660ff1982541617905560608101518051906001600160401b038211610f4b57610c6260038501546138f8565b601f8111610f0b575b50602090601f8311600114610e965791806005949260a094600092610e8b575b50508160011b916000199060031b1c19161760038501555b610cc260808201511515600486019060ff801983541691151516179055565b0151910155805460ff191660011790556013548015801580610e81575b610e5b575b5050549060145480921015610d32575b505060ff604051921682521515602082015233907f7f84f5cc0e30024757fd27639eee9a16d96102269fc647c1238a59ff0cb05fdb604060043592a3005b600435600052600b6020526040600020908154928310610e20576000916000905b848210610df35750508215610ddf57506004356000908152600a60205260409020600b9290910460088110610d99575001805461ffff19166102021790555b8280610cf4565b60068110610db5575001805461ffff1916610102179055610d92565b600411610dce5701805461ffff19166002179055610d92565b01805460ff19166003179055610d92565b634e487b7160e01b60009081526012600452fd5b9092610e14610e1a9160ff6002610e0a8887613a48565b5001541690613daa565b93613d87565b90610d53565b60649060146040519162461bcd60e51b83526020600484015282015273496e73756666696369656e74207265766965777360601b6044820152fd5b600080809381938290610e78575b3390f1156105f2578480610ce4565b506108fc610e69565b5081471015610cdf565b015190508b80610c8b565b906003850160005260206000209160005b601f1985168110610ef35750926005949260019260a09583601f19811610610eda575b505050811b016003850155610ca3565b015160001960f88460031b161c191690558b8080610eca565b91926020600181928685015181550194019201610ea7565b610f3b90600386016000526020600020601f850160051c81019160208610610f41575b601f0160051c0190613dca565b89610c6b565b9091508190610f2e565b86634e487b7160e01b60005260416004526000fd5b84634e487b7160e01b60005260006004526000fd5b84634e487b7160e01b60005260416004526000fd5b610f948186613a48565b50546001600160a01b03163314610fb357610fae90613d87565b610ba6565b60405162461bcd60e51b8152602060048201526010818801526f105b1c9958591e481c995d9a595dd95960821b6044820152606490fd5b60405162461bcd60e51b815260206004820152601581850152744e6f7420616363657074696e67207265766965777360581b6044820152606490fd5b600191501486610b89565b83634e487b7160e01b60005260216004526000fd5b60405162461bcd60e51b815260206004820152601b818401527f52657669657720686173682063616e6e6f7420626520656d70747900000000006044820152606490fd5b60405162461bcd60e51b815260206004820152601e818401527f53636f7265206d757374206265206265747765656e203120616e6420313000006044820152606490fd5b50600a60ff85161115610b52565b60405162461bcd60e51b8152602060048201526017818401527f4e6f7420617574686f72697a65642072657669657765720000000000000000006044820152606490fd5b346102b35760403660031901126102b357611139613705565b60243590811515908183036102b3576001600160a01b03169182156111b5576111879033600052600560205260406000208460005260205260406000209060ff801983541691151516179055565b6040519081527f17307eab39ab6107e8899845ad3d59bd9653f200f220920489ca2b5937696c3160203392a3005b604051630b61174360e31b815260048101849052602490fd5b346102b35760203660031901126102b3576111e7613705565b6111ef613a64565b6001600160a01b03166000908152600f60205260409020805460ff19166001179055005b346102b35760003660031901126102b3576020601454604051908152f35b346102b35760203660031901126102b35761124a613705565b611252613a64565b6001600160a01b03166000908152601160205260409020805460ff19166001179055005b346102b35760003660031901126102b3576040516000600180549061129a826138f8565b8085529181811690811561132e57506001146112d5575b61076b846112c181860382613782565b6040519182916020835260208301906136ac565b600081815292507fb10e2d527612073b26eecdfd717e6a320cf44b4afac2b0732d9fcbe2b7fa0cf65b8284106113165750505081016020016112c1826112b1565b805460208587018101919091529093019281016112fe565b60ff191660208087019190915292151560051b850190920192506112c191508390506112b1565b346102b35760203660031901126102b357600435611371613a64565b6103e8811161137f57601255005b60405162461bcd60e51b815260206004820152601160248201527008ccaca40e4c2e8ca40e8dede40d0d2ced607b1b6044820152606490fd5b346102b35760003660031901126102b3576007546040516001600160a01b039091168152602090f35b346102b35760203660031901126102b35760043561140161038082613ec2565b600052600a8060205260406000209061143e61142360ff600785015416613813565b5461143760ff600b86015460081c16613a2f565b5490613db7565b600c83015490828202918083048414901517156114e857600f8401549262278d0061146f8261271097015442613efa565b049081159081156114a5575b602061271061149c896114978a6114928b8b613daa565b613daa565b613db7565b04604051908152f35b8083029283041417156114e85784039384116114e8576020936127109361149c936113888084106114de575b509382965081955061147b565b92506114926114d1565b634e487b7160e01b600052601160045260246000fd5b346102b35760203660031901126102b357611517613a64565b600435601355005b346102b35760203660031901126102b35760043560048110156102b357611547602091613a2f565b54604051908152f35b346102b35760203660031901126102b3576004356001600160401b0381116102b35760ff61159b6020611588819436906004016137f5565b8160405193828580945193849201613689565b8101600e81520301902054166040519015158152f35b346102b3576020806003193601126102b3576004356115d261038082613ec2565b600052600c81526040600020908154916115eb83613861565b926115f96040519485613782565b8084528284018092600052836000206000915b8383106116aa5750505050604051918083019381845251809452604083019360408160051b85010192916000955b8287106116475785850386f35b90919293828061169a600193603f198a82030186528851805182528381015184830152858060a01b036040820151166040830152606080820151908301526080809101519160a0809282015201906136ac565b960192019601959291909261163a565b6005866001926040999899516116bf81613731565b855481528486015483820152848060a01b036002870154166040820152600386015460608201526116f260048701613932565b608082015281520192019201919095949561160c565b346102b35760403660031901126102b357602061172e61172661371b565b600435613f88565b6040519015158152f35b346102b35760003660031901126102b357611751613a64565b600780546001600160a01b031981169091556000906001600160a01b03167f8be0079c531659141344cd1fd0a4f28419497f9722a3daafe3b4186f6b6457e08280a3005b346102b35760203660031901126102b3576001600160a01b036117b6613705565b1680156117d55760005260036020526020604060002054604051908152f35b6040516322718ad960e21b815260006004820152602490fd5b346102b35760203660031901126102b3576001600160a01b0361180f613705565b166000526010602052602060ff604060002054166040519015158152f35b346102b35760403660031901126102b357611846613705565b6001600160a01b03166000908152600d60205260409020805460243591908210156102b35760209161187791613a17565b90546040519160031b1c8152f35b346102b357611893366139e5565b90600052600c60205260406000209081548110156102b3576118b4916139fb565b50805461076b60018301549260018060a01b03600282015416906118df600460038301549201613932565b91604051958695865260208601526040850152606084015260a0608084015260a08301906136ac565b346102b35760203660031901126102b3576001600160a01b03611929613705565b16600052600d60205261076b6119426040600020613f07565b6040519182916020835260208301906136d1565b346102b35760203660031901126102b3576020611974600435613c16565b6040516001600160a01b039091168152f35b346102b35760203660031901126102b357600435600052600a6020526040600020805490600381016119b790613932565b6119c360048301613932565b90600783015460ff1692600881016119da90613932565b926119e760098301613932565b94600a83015494600b84015496600c85015491600f86015493601087015495601188015460ff169760120154986040519c8d528c6101c06020819201528d01611a2f916136ac565b8c810360408e0152611a40916136ac565b9060608c01611a4e916139d8565b8a810360808c0152611a5f916136ac565b89810360a08b0152611a70916136ac565b9560c089015260ff87166005811015611ac95760e0890152600460ff8860081c161015611ac95760ff889760081c1661010088015261012087015261014086015261016085015215156101808401526101a08301520390f35b634e487b7160e01b600052602160045260246000fd5b346102b35760003660031901126102b3576020601354604051908152f35b346102b35761001b611b0e3661382c565b9060405192611b1c84613767565b60008452610acc838383613a90565b346102b3576101803660031901126102b3576004356001600160401b0381116102b357366023820112156102b357806004013590611b6882613861565b90611b766040519283613782565b82825260208201906024829460051b820101903682116102b357602401915b818310612db7575050506024356001600160401b0381116102b357366023820112156102b357806004013591611bca83613861565b91611bd86040519384613782565b838352602083016024819560051b830101913683116102b357602401905b828210612da7575050506044356001600160401b0381116102b357611c1f9036906004016137f5565b936064356001600160401b0381116102b357611c3f9036906004016137f5565b906084356001600160401b0381116102b357611c5f903690600401613878565b9460a4356001600160401b0381116102b357611c7f903690600401613878565b96600860c43510156102b35760e4356001600160401b0381116102b357611caa9036906004016137f5565b610104356001600160401b0381116102b357611cca9036906004016137f5565b9061012435151561012435036102b3576001600160401b0361016435116102b357611cfb36610164356004016137f5565b9187518015159081612d9b575b5015612d5e578751895103612d0e57835115612cd157815115612c8c5760ff6040516020818551611d3c8183858a01613689565b8101600e8152030190205416612c4e5760009a8b5b8a518d1015611d7e57611d72611d7891611d6b8f8e613d96565b5190613daa565b9c613d87565b9b611d51565b908b6127108c949303612c095760009960005b8c51811015612bf957338d611dad8360018060a01b0392613d96565b511614611dc257611dbd90613d87565b611d91565b50909192939495969798995060015b33600052601160205260ff604060002054168115612bf1575b5015612b8657611dfb600954613d87565b988960095589600052600a6020526040600020958a87558c516001600160401b0381116123bc57600160401b81116123bc5760018801611e4082825481845583613de1565b8d90600052602060002060005b838110612b69575050505051906001600160401b0382116123bc57600160401b82116123bc576002870190611e8783835481855584613de1565b90600052602060002060005b838110612b55575050505087516001600160401b0381116123bc57611ebb60038701546138f8565b601f8111612b20575b50806020601f8211600114612ab257600091612aa7575b508160011b916000199060031b1c19161760038601555b8051906001600160401b0382116123bc578190611f1260048801546138f8565b601f8111612a72575b50602090601f8311600114612a00576000926129f5575b50508160011b916000199060031b1c19161760048501555b805190600160401b82116123bc57600585015482600587015580831061297d575b5060200190600585016000526020600020916000905b8282106128685750505050805190600160401b82116123bc5760068401548260068601558083106127f0575b5060200190600684016000526020600020916000905b8282106126db57505050506007820160ff1981541660ff60c4351617905582516001600160401b0381116123bc57611ffe60088401546138f8565b601f81116126a6575b50806020601f82116001146126395760009161262e575b508160011b916000199060031b1c19161760088301555b8051906001600160401b0382116123bc5761205360098401546138f8565b601f81116125f9575b50602090601f8311600114612582579180602094926120db9694600092612577575b50508160011b916000199060031b1c19161760098201555b42600a820155600b8101805461ffff1916905560118101805460ff191660ff610124351515161790556012610144359101558160405193828580945193849201613689565b8101600e815203019020600160ff1982541617905560005b85518110156121345761212f906001600160a01b036121128289613d96565b5116600052600d60205261212a856040600020613e04565b613d87565b6120f3565b50909284511561256157516040516001600160a01b03909116949061215881613767565b600081528515612548576000848152600260205260409020546001600160a01b0316801515908590889083612511575b8160005260036020526040600020600181540190558260005260026020526040600020826001600160601b0360a01b8254161790557fddf252ad1be2c89b69c2b068fc378daa952ba7f163c4a11628f55a4df523b3ef600080a46124f857853b6123d2575b5090918093945060005260066020526040600020938251946001600160401b0386116123bc57602095859461222283546138f8565b601f811161238c575b508790601f83116001146122f95792826122ce936122c196937fb84323f4010ff6d9c56a78c812a189877d2d96e21faa9c5b7c75360a137eacc698966000926122ee575b50508160011b916000199060031b1c19161790555b7ff8e1a15aba9398e019f0b49df1a4fde98ee17ae345cb5f6b5e2c27f5033e8ce788604051888152a1604051938493608085526080850190613e39565b90838203898501526136ac565b6122dd6040830160c4356139d8565b4260608301520390a2604051908152f35b015190508b8061226f565b90601f1983169184600052896000209260005b8181106123725750936122c196937fb84323f4010ff6d9c56a78c812a189877d2d96e21faa9c5b7c75360a137eacc6989693600193836122ce9810612359575b505050811b019055612284565b015160001960f88460031b161c191690558b808061234c565b8284015185558a9950600190940193928b01928b0161230c565b6123b6908460005289600020601f850160051c8101918b8610610f4157601f0160051c0190613dca565b8861222b565b634e487b7160e01b600052604160045260246000fd5b6040516020818061240c630a85bd0160e11b95868352336004840152600060248401528960448401526080606484015260848301906136ac565b038160008b5af1600091816124b3575b5061247c57863d15612474573d90612433826137a3565b916124416040519384613782565b82523d6000602084013e5b8151918261246d57604051633250574960e11b815260048101839052602490fd5b6020915001fd5b60609061244c565b63ffffffff60e09793949596971b160361249b575090839291856121ed565b60249060405190633250574960e11b82526004820152fd5b9091506020813d6020116124f0575b816124cf60209383613782565b810103126102b357516001600160e01b0319811681036102b357908861241c565b3d91506124c2565b6040516339e3563760e11b815260006004820152602490fd5b600083815260046020526040902080546001600160a01b031916905580600052600360205260406000206000198154019055612188565b604051633250574960e11b815260006004820152602490fd5b634e487b7160e01b600052603260045260246000fd5b015190508b8061207e565b906009840160005260206000209160005b601f19851681106125e1575092602094926001926120db979583601f198116106125c8575b505050811b016009820155612096565b015160001960f88460031b161c191690558b80806125b8565b91926020600181928685015181550194019201612593565b61262890600985016000526020600020601f850160051c81019160208610610f4157601f0160051c0190613dca565b8961205c565b90508401518a61201e565b91506008840160005260206000206000925b601f198316841061268e576001935082601f19811610612675575b5050811b016008830155612035565b86015160001960f88460031b161c191690558a80612666565b8681015182556020938401936001909201910161264b565b6126d590600885016000526020600020601f840160051c81019160208510610f4157601f0160051c0190613dca565b89612007565b80518051906001600160401b0382116123bc576126f886546138f8565b601f81116127be575b50602090601f831160011461274e579282600194936020938695600092612743575b5050600019600383901b1c191690841b1787555b01940191019092611fc3565b015190503880612723565b908660005260206000209160005b601f19851681106127a6575083602093600196938796938794601f1981161061278d575b505050811b018755612737565b015160001960f88460031b161c19169055388080612780565b9192602060018192868501518155019401920161275c565b6127ea90876000526020600020601f850160051c81019160208610610f4157601f0160051c0190613dca565b8e612701565b600685016000526020600020908382015b8183018110612811575050611fad565b8061281e600192546138f8565b8061282b575b5001612801565b601f811183146128415750600081555b8e612824565b60009082825261285f601f60208420920160051c8201858301613dca565b8183555561283b565b80518051906001600160401b0382116123bc5761288586546138f8565b601f811161294b575b50602090601f83116001146128db5792826001949360209386956000926128d0575b5050600019600383901b1c191690841b1787555b01940191019092611f81565b0151905038806128b0565b908660005260206000209160005b601f1985168110612933575083602093600196938796938794601f1981161061291a575b505050811b0187556128c4565b015160001960f88460031b161c1916905538808061290d565b919260206001819286850151815501940192016128e9565b61297790876000526020600020601f850160051c81019160208610610f4157601f0160051c0190613dca565b8f61288e565b600586016000526020600020908382015b818301811061299e575050611f6b565b806129ab600192546138f8565b806129b8575b500161298e565b601f811183146129ce5750600081555b8f6129b1565b6000908282526129ec601f60208420920160051c8201858301613dca565b818355556129c8565b015190508c80611f32565b9250600487016000526020600020906000935b601f1984168510612a57576001945083601f19811610612a3e575b505050811b016004850155611f4a565b015160001960f88460031b161c191690558c8080612a2e565b81810151835560209485019460019093019290910190612a13565b612aa190600489016000526020600020601f850160051c81019160208610610f4157601f0160051c0190613dca565b8d611f1b565b90508901518d611edb565b91506003870160005260206000206000925b8b601f1984168510612b0957506001935082601f19811610612af0575b5050811b016003860155611ef2565b8b015160001960f88460031b161c191690558d80612ae1565b810151825560209384019360019092019101612ac4565b612b4f90600388016000526020600020601f840160051c81019160208510610f4157601f0160051c0190613dca565b8c611ec4565b600190602084519401938184015501611e93565b82516001600160a01b031681830155602090920191600101611e4d565b60405162461bcd60e51b815260206004820152603b60248201527f43616c6c6572206d757374206265206f6e65206f662074686520617574686f7260448201527f73206f7220616e20617574686f72697a656420636f6e747261637400000000006064820152608490fd5b90508c611dea565b5090919293949596979899611dd1565b60405162461bcd60e51b815260206004820152601e60248201527f417574686f7220736861726573206d7573742073756d20746f203130302500006044820152606490fd5b60405162461bcd60e51b8152602060048201526016602482015275436f6e74656e7420616c72656164792065786973747360501b6044820152606490fd5b60405162461bcd60e51b815260206004820152601c60248201527f436f6e74656e7420686173682063616e6e6f7420626520656d707479000000006044820152606490fd5b60405162461bcd60e51b81526020600482015260156024820152745469746c652063616e6e6f7420626520656d70747960581b6044820152606490fd5b60405162461bcd60e51b815260206004820152602260248201527f417574686f727320616e6420736861726573206c656e677468206d69736d61746044820152610c6d60f31b6064820152608490fd5b60405162461bcd60e51b8152602060048201526015602482015274125b9d985b1a5908185d5d1a1bdc9cc818dbdd5b9d605a1b6044820152606490fd5b6014915011158c611d08565b8135815260209182019101611bf6565b82356001600160a01b03811681036102b357815260209283019201611b95565b346102b35760003660031901126102b357602060405160148152f35b346102b35761001b612e043661382c565b91613a90565b346102b35760203660031901126102b35760043560088110156102b357611547602091613813565b346102b35760003660031901126102b357600954600190600080808080865b86811115612e7f575060c09650604051958652602086015260408501526060840152608083015260a0820152f35b612e8881613ec2565b612e9b575b612e9690613d87565b612e51565b938460009493929452600a60205260ff600b612edf612ed3612ec7604060002098600c8a015490613daa565b95600f89015490613daa565b95601088015490613daa565b95015416600581101580611ac95781158015612f3f575b15612f12575050612f09612e9691613d87565b945b9050612e8d565b959195611ac957600214612f2a575b612e9690612f0b565b94612f37612e9691613d87565b959050612f21565b50506000898214612ef6565b346102b35760203660031901126102b357612f64613705565b612f6c613a64565b6001600160a01b03166000908152600f60205260409020805460ff19169055005b346102b35760603660031901126102b357602460043581356001600160401b036044358181116102b357612fc59036906004016137f5565b90612fcf84613ec2565b80613336575b156132fb578284146132c45783600052602091600a8352604060002091846000526040600020936000906000916001928387018054915b828110613287575b505050156132445787600052600c815260406000206040519061303682613731565b89825282820190898252604083013381526060840191428352608085019889528054600160401b81101561322f576130729188820181556139fb565b93909361321a576004945184555186840155600283019060018060a01b039051166001600160601b0360a01b825416179055516003820155019351805193841161320557879899506130c785989798546138f8565b601f81116131d5575b5081601f851160011461315d575092808061310f9794600c9a999794600d97600094613152575b50501b916000199060031b1c19161790555b01613e04565b61311c84600e8301613e04565b016131278154613d87565b905533917ff5e91f658361d8919878166c1537da4a18d363a5e252aeb4c2fad82cc6df7467600080a4005b015192508d806130f7565b9190601f9493941984168660005283600020936000905b8282106131bb57505092600d9592859261310f9996600c9c9b9996106131a2575b505050811b019055613109565b015160001960f88460031b161c191690558b8080613195565b8385015186558c9a50948701949384019390810190613174565b6131ff908660005283600020601f870160051c810191858810610f4157601f0160051c0190613dca565b8a6130d0565b89634e487b7160e01b60005260416004526000fd5b8d634e487b7160e01b60005260006004526000fd5b8e634e487b7160e01b60005260416004526000fd5b606490601e8a6040519262461bcd60e51b845260048401528201527f4d75737420626520617574686f7220746f20616464206369746174696f6e00006044820152fd5b6132918183613a17565b905460039190911b1c6001600160a01b031633146132b7576132b290613d87565b61300c565b50505050818a8080613014565b60405162461bcd60e51b8152602060048201526010818701526f21b0b73737ba1031b4ba329039b2b63360811b6044820152606490fd5b60405162461bcd60e51b81526020600482015260148187015273151bdad95b88191bd95cc81b9bdd08195e1a5cdd60621b6044820152606490fd5b5061334083613ec2565b612fd5565b346102b35760403660031901126102b35761335e613705565b60243561336a81613c16565b33151580613419575b806133ec575b6133d4576001600160a01b039283169282918491167f8c5be1e5ebec7d5bd14f71427d1e84f3dd0314c0f7b2291e5b200ac8c7c3b925600080a4600090815260046020526040902080546001600160a01b0319169091179055005b60405163a9fbf51f60e01b8152336004820152602490fd5b5060018060a01b038116600052600560205260406000203360005260205260ff6040600020541615613379565b506001600160a01b038116331415613373565b346102b3576020806003193601126102b3576004359060088083101592836102b3576009549061345b82613f56565b9460009360015b848111156134bc5787878761347681613f56565b9260005b8281106134985750505061076b6040519282849384528301906136d1565b806134a66134b79284613d96565b516134b18288613d96565b52613d87565b61347a565b6134c581613ec2565b806134f9575b6134de575b6134d990613d87565b613462565b946134f181876134b16134d9948c613d96565b9590506134d0565b5080600052600a87528260ff6007604060002001541690611ac95782811015611ac95784146134cb565b346102b35760203660031901126102b35760043561354081613c16565b506000526004602052602060018060a01b0360406000205416604051908152f35b346102b35760003660031901126102b35760405160008054613582816138f8565b8084529060019081811690811561132e57506001146135ab5761076b846112c181860382613782565b600080805292507f290decd9548b62a8d60345a988386fc84ba6bc95484008f6362f93160ef3e5635b8284106135ec5750505081016020016112c1826112b1565b805460208587018101919091529093019281016135d4565b346102b35760203660031901126102b3576004359063ffffffff60e01b82168092036102b357602091632483248360e11b8114908115613646575b5015158152f35b6380ac58cd60e01b811491508115613678575b8115613667575b508361363f565b6301ffc9a760e01b14905083613660565b635b5e139f60e01b81149150613659565b60005b83811061369c5750506000910152565b818101518382015260200161368c565b906020916136c581518092818552858086019101613689565b601f01601f1916010190565b90815180825260208080930193019160005b8281106136f1575050505090565b8351855293810193928101926001016136e3565b600435906001600160a01b03821682036102b357565b602435906001600160a01b03821682036102b357565b60a081019081106001600160401b038211176123bc57604052565b60c081019081106001600160401b038211176123bc57604052565b602081019081106001600160401b038211176123bc57604052565b90601f801991011681019081106001600160401b038211176123bc57604052565b6001600160401b0381116123bc57601f01601f191660200190565b9291926137ca826137a3565b916137d86040519384613782565b8294818452818301116102b3578281602093846000960137010152565b9080601f830112156102b357816020613810933591016137be565b90565b6008811015611ac9576000526015602052604060002090565b60609060031901126102b3576001600160a01b039060043582811681036102b3579160243590811681036102b3579060443590565b6001600160401b0381116123bc5760051b60200190565b9080601f830112156102b35781359061389082613861565b9261389e6040519485613782565b828452602092838086019160051b830101928084116102b357848301915b8483106138cc5750505050505090565b82356001600160401b0381116102b35786916138ed848480948901016137f5565b8152019201916138bc565b90600182811c92168015613928575b602083101461391257565b634e487b7160e01b600052602260045260246000fd5b91607f1691613907565b9060405191826000825492613946846138f8565b9081845260019485811690816000146139b55750600114613972575b505061397092500383613782565b565b9093915060005260209081600020936000915b81831061399d57505061397093508201013880613962565b85548884018501529485019487945091830191613985565b91505061397094506020925060ff191682840152151560051b8201013880613962565b906008821015611ac95752565b60409060031901126102b3576004359060243590565b8054821015612561576000526005602060002091020190600090565b80548210156125615760005260206000200190600090565b6004811015611ac9576000526016602052604060002090565b8054821015612561576000526006602060002091020190600090565b6007546001600160a01b03163303613a7857565b60405163118cdaa760e01b8152336004820152602490fd5b6001600160a01b03918216929091831561254857600092828452826020956002875260409684888820541696879133151580613b80575b509060027fddf252ad1be2c89b69c2b068fc378daa952ba7f163c4a11628f55a4df523b3ef9284613b4d575b858352600381528b8320805460010190558683525289812080546001600160a01b0319168517905580a41692838303613b2c5750505050565b6064945051926364283d7b60e01b8452600484015260248301526044820152fd5b600087815260046020526040902080546001600160a01b0319169055848352600381528b83208054600019019055613af3565b91939450915080613bd5575b15613b9c57859291879138613ac7565b878688613bb9576024915190637e27328960e01b82526004820152fd5b604491519063177e802f60e01b82523360048301526024820152fd5b503387148015613bfa575b80613b8c5750858252600481523385898420541614613b8c565b5086825260058152878220338352815260ff8883205416613be0565b6000818152600260205260409020546001600160a01b0316908115613c39575090565b60249060405190637e27328960e01b82526004820152fd5b90939192833b613c63575b5050505050565b604051630a85bd0160e11b8082526001600160a01b039384166004830152958316602482015260448101919091526080606482015294921692602092918590613cb09060848301906136ac565b039483816000978189895af1869181613d43575b50613d25575050503d600014613d1c573d613cde816137a3565b90613cec6040519283613782565b81528093823d92013e5b82519283613d1757604051633250574960e11b815260048101849052602490fd5b019050fd5b60609250613cf6565b919450915063ffffffff60e01b160361249b57503880808080613c5c565b9091508481813d8311613d80575b613d5b8183613782565b81010312613d7c57516001600160e01b031981168103613d7c579038613cc4565b8680fd5b503d613d51565b60001981146114e85760010190565b80518210156125615760209160051b010190565b919082018092116114e857565b818102929181159184041417156114e857565b818110613dd5575050565b60008155600101613dca565b91818110613dee57505050565b6139709260005260206000209182019101613dca565b8054600160401b8110156123bc57613e2191600182018155613a17565b819291549060031b91821b91600019901b1916179055565b90815180825260208080930193019160005b828110613e59575050505090565b83516001600160a01b031685529381019392810192600101613e4b565b15613e7d57565b60405162461bcd60e51b815260206004820152601760248201527f526573656172636820646f6573206e6f742065786973740000000000000000006044820152606490fd5b8015159081613eed575b81613ed5575090565b9050600052600a602052600a60406000200154151590565b6009548111159150613ecc565b919082039182116114e857565b9060405191828154918282526020928383019160005283600020936000905b828210613f3c5750505061397092500383613782565b855484526001958601958895509381019390910190613f26565b90613f6082613861565b613f6d6040519182613782565b8281528092613f7e601f1991613861565b0190602036910137565b613f9181613ec2565b1561402857600052600a602052604060002060ff6011820154166140215760009160018083018054945b858110613fe4575050506013925060018060a01b03166000520160205260ff6040600020541690565b613fee8183613a17565b905460039190911b1c6001600160a01b03908116908516146140185761401390613d87565b613fbb565b50509250505090565b5050600190565b505060009056fea2646970667358221220b0c1e43eb342764637020edcc1a5f2cfc9f0a83da2ecaa7adccd755a31dcf41864736f6c63430008140033",
  "linkReferences": {},
  "deployedLinkReferences": {}
}